:100000000C942A000C943C000C943C000C943C0092
:100010000C943C000C943C000C943C000C943C0070
:100020000C943C000C943C000C943C000C943C0060
:100030000C943C000C943C000C94FD030C943C008C
:100040000C943C000C943C000C943C000C943C0040
:100050000C943C0011241FBECFE5D8E0DEBFCDBF1D
:1000600010E0A0E6B0E001C01D92A436B107E1F7B0
:100070000E9430040C9462040C940000DF93CF9330
:10008000CDB7DEB7A7E2B0E0E7E2F0E080818064C0
:100090008C93A7E2B0E0E7E2F0E080818F778C9369
:1000A000A7E2B0E0E7E2F0E080818F7D8C93A7E2E9
:1000B000B0E0E7E2F0E0808180618C93A7E2B0E0FD
:1000C000E7E2F0E08081877F8C93A7E2B0E0E7E28F
:1000D000F0E080818B7F8C93A7E2B0E0E7E2F0E074
:1000E00080818D7F8C93A7E2B0E0E7E2F0E0808131
:1000F0008E7F8C93A6E2B0E0E6E2F0E08081816042
:100100008C93A6E2B0E0E6E2F0E0808182608C931E
:10011000A6E2B0E0E6E2F0E0808184608C93A6E2A3
:10012000B0E0E6E2F0E0808180688C93CF91DF91CF
:100130000895DF93CF9300D0CDB7DEB71A8219822E
:10014000A6E2B0E0E6E2F0E0808180648C93E6E233
:10015000F0E0808182958F70882F90E081709070A0
:100160000097A9F3A6E2B0E0E6E2F0E080818061CA
:100170008C93E4E2F0E020813181E5E2F0E08081DF
:10018000882F90E0820F931F9A83898389819A81B7
:100190000F900F90CF91DF910895DF93CF93CDB75C
:1001A000DEB72D970FB6F894DEBF0FBECDBF8983A3
:1001B0006A834B838981282F30E03D872C878C858B
:1001C0009D858230910509F454C02C853D852330EE
:1001D000310534F48C859D858130910571F0FBC02B
:1001E0002C853D852330310509F47FC08C859D85A4
:1001F0008430910509F4B5C0EEC08B81282F30E022
:100200003B872A878A859B8582309105A1F02A85C4
:100210003B8523303105D1F08A859B85813091055E
:1002200009F0D9C0AAE3B0E0EAE3F0E090818A8166
:10023000892B8C93D0C0AAE3B0E0EAE3F0E08081A0
:10024000982F8A81809589238C93C5C0AAE3B0E05A
:10025000EAE3F0E08081982F8A81809589238C934E
:10026000ABE3B0E0EBE3F0E090818A81892B8C93E3
:10027000B2C08B81282F30E03987288788859985FF
:1002800082309105A1F02885398523303105D1F0E0
:10029000888599858130910509F09DC0A7E3B0E07C
:1002A000E7E3F0E090818A81892B8C9394C0A7E3E7
:1002B000B0E0E7E3F0E08081982F8A818095892380
:1002C0008C9389C0A7E3B0E0E7E3F0E08081982F4A
:1002D0008A81809589238C93A8E3B0E0E8E3F0E07D
:1002E00090818A81892B8C9376C08B81282F30E076
:1002F0003F832E838E819F8182309105A1F02E81D4
:100300003F8123303105D1F08E819F81813091056D
:1003100009F061C0A4E3B0E0E4E3F0E090818A81F9
:10032000892B8C9358C0A4E3B0E0E4E3F0E0808133
:10033000982F8A81809589238C934DC0A4E3B0E0E7
:10034000E4E3F0E08081982F8A81809589238C9363
:10035000A5E3B0E0E5E3F0E090818A81892B8C93FE
:100360003AC08B81282F30E03D832C838C819D8186
:100370008230910599F02C813D8123303105C9F0FF
:100380008C819D818130910531F5A1E3B0E0E1E3FD
:10039000F0E090818A81892B8C931DC0A1E3B0E0AD
:1003A000E1E3F0E08081982F8A81809589238C9306
:1003B00012C0A1E3B0E0E1E3F0E08081982F8A81F0
:1003C000809589238C93A2E3B0E0E2E3F0E0908192
:1003D0008A81892B8C932D960FB6F894DEBF0FBEC1
:1003E000CDBFCF91DF910895DF93CF93CDB7DEB727
:1003F0002D970FB6F894DEBF0FBECDBF89836A83F9
:100400004B838981282F30E03D872C878C859D8503
:1004100082309105D9F12C853D852330310534F4A6
:100420008C859D858130910571F096C02C853D8528
:100430002330310509F44DC08C859D8584309105AC
:1004400009F469C089C08B81282F30E03B872A8757
:100450008A859B85009779F02A853B852130310577
:1004600009F07AC0ABE3B0E0EBE3F0E090818A8181
:10047000892B8C9371C0ABE3B0E0EBE3F0E08081BB
:10048000982F8A81809589238C9366C08B81282F31
:1004900030E03987288788859985009779F0288505
:1004A00039852130310509F057C0A8E3B0E0E8E311
:1004B000F0E090818A81892B8C934EC0A8E3B0E054
:1004C000E8E3F0E08081982F8A81809589238C93DE
:1004D00043C08B81282F30E03F832E838E819F8104
:1004E000009771F02E813F8121303105A9F5A5E3F8
:1004F000B0E0E5E3F0E090818A81892B8C932CC0F9
:10050000A5E3B0E0E5E3F0E08081982F8A81809553
:1005100089238C9321C08B81282F30E03D832C834D
:100520008C819D81009771F02C813D8121303105B6
:1005300099F4A2E3B0E0E2E3F0E090818A81892BB4
:100540008C930AC0A2E3B0E0E2E3F0E08081982F50
:100550008A81809589238C932D960FB6F894DEBFFF
:100560000FBECDBFCF91DF910895DF93CF9300D021
:1005700000D0CDB7DEB789836A838981282F30E028
:100580003C832B838B819C8182309105F9F02B81F8
:100590003C812330310534F48B819C81813091057D
:1005A00061F02EC02B813C8123303105C1F08B815D
:1005B0009C8184309105E1F023C0ABE3B0E0EBE334
:1005C000F0E090818A81892B8C931AC0A8E3B0E077
:1005D000E8E3F0E090818A81892B8C9311C0A5E338
:1005E000B0E0E5E3F0E090818A81892B8C9308C02C
:1005F000A2E3B0E0E2E3F0E090818A81892B8C9362
:100600000F900F900F900F90CF91DF910895DF938F
:10061000CF9300D000D00F92CDB7DEB78A836B8323
:1006200019828A81282F30E03D832C838C819D8123
:100630008230910511F12C813D812330310534F454
:100640008C819D818130910561F03AC02C813D8182
:1006500023303105F1F08C819D818430910529F1A1
:100660002FC0E9E3F0E090818B818923882319F082
:1006700081E0898325C0198223C0E6E3F0E0908100
:100680008B818923882319F081E0898319C019821D
:1006900017C0E3E3F0E090818B818923882319F070
:1006A00081E089830DC019820BC0E0E3F0E0908106
:1006B0008B818923882319F081E0898301C0198205
:1006C00089810F900F900F900F900F90CF91DF9135
:1006D0000895DF93CF93CDB7DEB7AFE5B0E0EFE598
:1006E000F0E0808180688C93CF91DF910895DF9353
:1006F000CF93CDB7DEB7AFE5B0E0EFE5F0E08081B6
:100700008F778C93CF91DF910895DF93CF93CDB7FF
:10071000DEB7AAE2B0E0EAE2F0E0808180628C938A
:10072000AAE2B0E0EAE2F0E0808188608C93AAE27D
:10073000B0E0EAE2F0E080818B7F8C93A0E4B0E04F
:10074000E0E4F0E0808180688C93A0E4B0E0E0E435
:10075000F0E080818F7B8C93A0E4B0E0E0E4F0E0F7
:1007600080818F7D8C93A0E4B0E0E0E4F0E08081B4
:100770008F7E8C93A0E4B0E0E0E4F0E08081877F9E
:100780008C93A0E4B0E0E0E4F0E0808184608C939E
:10079000A0E4B0E0E0E4F0E0808182608C93E9E2E4
:1007A000F0E083E38083ABE2B0E0EBE2F0E0808155
:1007B0008F7E8C93ABE2B0E0EBE2F0E08081877F4C
:1007C0008C93ABE2B0E0EBE2F0E080818B7F8C9326
:1007D000CF91DF910895DF93CF9300D0CDB7DEB7EF
:1007E0009A83898389819A819093610080936000C4
:1007F0000F900F90CF91DF9108951F920F920FB637
:100800000F9211242F933F934F935F936F937F9396
:100810008F939F93AF93BF93EF93FF93DF93CF9308
:10082000CDB7DEB78091600090916100009729F00C
:10083000E0916000F09161000995CF91DF91FF9107
:10084000EF91BF91AF919F918F917F916F915F9148
:100850004F913F912F910F900FBE0F901F901895C1
:10086000DF93CF93CDB7DEB781E061E042E00E9435
:10087000CD0081E062E042E00E94CD0084E062E0D1
:1008800041E00E94CD000E943E000E94850384E565
:1008900094E00E94EB030E9469030E9499009093E8
:1008A000630080936200F9CFDF93CF93CDB7DEB7BB
:1008B000ECE2F0E080916200909163008083CF9140
:0808C000DF910895F894FFCFC9
:00000001FF
